:10000000F0EF06F0F76A140FF66E000EF722090003
:10001000F5501200000000000000005F0000000327
:10002000000300143E143E14242A7F2A124333088E
:10003000666136495522500005030000001C22412C
:10004000000041221C0014083E081408083E08085D
:100050000050300000080808080800606000002018
:10006000100804023E5149453E04027F00004261EF
:1000700051494622414949361814127F10274545F7
:1000800045393E4949493201017109073649494913
:1000900036264949493E00363600000056360000F3
:1000A00008142241001414141414004122140802EC
:1000B000015109063E4159555E7E0909097E7F4975
:1000C0004949363E414141227F4141413E7F4949B4
:1000D00049417F090909013E4141493A7F08080821
:1000E0007F00417F4100304040403F7F0814224163
:1000F0007F404040407F020C027F7F0204087F3E29
:100100004141413E7F090909061E2121215E7F09E7
:1001100009097600F76A240FF66E010EF72209002E
:10012000F5501200264949493201017F01013F4043
:1001300040403F1F2040201F7F2010207F41221C75
:10014000224107087008076151494543007F41007B
:100150000002040810200000417F00040201020494
:100160004040404040000102040020545454787F35
:10017000444444383844444444384444447F385424
:1001800054541804047E0505085454543C7F080454
:10019000047800447D40002040443D007F10284406
:1001A0000000417F40007C047804787C08040478D7
:1001B00038444444387C14141408081414147C0083
:1001C0007C080404485454542004043F44443C40F4
:1001D00040207C1C2040201C3C4030403C442810E7
:1001E00028440C5050503C4464544C440008364160
:1001F0004100007F00004141360800020102040274
:1002000005012F51080803E193908A8002D0939250
:100210008A8293988A98956A30C58CFF939A8A8AC5
:1002200000D0939A8A9A93908A9093928A9200012E
:100230001200050144514603F3CF01F0F4CF00F062
:100240004703F350002645514603F3500020026E49
:100250000001120005012C1D2F6F2F2B2D6B2D512E
:10026000070825E32E6B2E517F081FE3456B2EC533
:1002700044F5476B080E466F0001DBDF0150010FAC
:100280000501306F000E0220316F2D513025016EB7
:10029000000E3121036E0150040FE96E000E0320A1
:1002A000EA6E2FC5EFFF2E2BDED72D2BD8D704906B
:1002B0000001120094908B80939A8A9A93908A906E
:1002C00093928A9293948A94080E05012F6FC00E20
:1002D000306F000195DF090E05012F6FC00E306FE2
:1002E00000018EDF080E05012F6F400E306F0001F8
:1002F00087DF090E05012F6F400E306F000180DF90
:10030000080E05012F6FB80E306F000179DF090E5E
:1003100005012F6FB80E306F000172DF0501292D26
:100320000FD0080E2F6F3F0E306F000169DF090EEE
:1003300005012F6F3F0E306F000162DF0ED0050107
:10034000080E2F6F3E0E306F00015ADF090E0501B7
:100350002F6F3E0E306F000153DF05012C6B000143
:1003600079DF43EF07F0016A026A006A036A050158
:10037000315102E1305118E0100E326FD8902E3713
:100380002F37003603363151035C02E13051005CF7
:1003900007E33051005ED8A003063151035ED880D8
:1003A00001360236322FEAD7000112000501405112
:1003B000070B436F456B3FC544F5476B080E466F0F
:1003C000000137DF0150010F0501446F000E0220CC
:1003D000456F4031006E003200321F0E0016005093
:1003E0004425016E000E4521036E0150040FE96E95
:1003F000000E0320EA6EEFCF42F542C500F04351F4
:10040000016E04E0D8900032012EFCD7000E00B03F
:10041000010E415D3EE0412D0CD0010E006E4351B6
:10042000016E04E0D8900036012EFCD70050421334
:100430000CD0010E006E4351016E04E0D8900036DE
:10044000012EFCD70050FF0A4217456B3FC544F50B
:10045000476B080E466F0001ECDE0150010F0501ED
:10046000446F000E0220456F4031006E00320032B2
:100470001F0E001600504425016E000E4521036E2C
:100480000150040FE96E000E0320EA6E42C5EFFF33
:10049000048000011200006A016A05014051D890F1
:1004A00041B100260032013241B300260032013250
:1004B00041B500260032013241B700260032013238
:1004C00041B900260032013241BB00260032013220
:1004D00041BD00260032013241BF00260032013208
:1004E0000001120005013151335D3F6F3F513FAFB5
:1004F00003D0000ED8803F553A6F3251345D3F6FC4
:100500003F513FAF03D0000ED8803F553B6F31C500
:1005100036F532C537F53151335D02E2386902D024
:10052000010E386F3251345D02E2396902D0010E9A
:10053000396F3B51800A006E3A51800A005C01E03D
:1005400050E2020E406F3BC541F50001A4DF0501FA
:100550003A51015C036AE8BE03063C6F03C03DF5F7
:100560003E6B3ABF3DD03E513A5D3AE336C53FF56A
:1005700037C540F535C541F5000118DF05013DAF30
:1005800011D0020E406F3BC541F5000184DF0150E0
:10059000036AE8BE030605013C2703503D2338519A
:1005A00036271CD0020E406F3BC541F5000173DFBA
:1005B00001C03FF5020E0501406F3AC541F500014B
:1005C0006ADF015005013F5D036AE8BE03063C2770
:1005D00003503D2338513627395137273E2BC1D799
:1005E0004FD0020E406F3AC541F5000154DF0501BE
:1005F0003B51015C036AE8BE03063C6F03C03DF556
:100600003E6B3BBF3DD03E513B5D3AE336C53FF5C7
:1006100037C540F535C541F50001C8DE05013DAFE0
:1006200011D0020E406F3AC541F5000134DF015090
:10063000036AE8BE030605013C2703503D233951F8
:1006400037271CD0020E406F3AC541F5000123DF69
:1006500001C03FF5020E0501406F3BC541F50001A9
:100660001ADF015005013F5D036AE8BE03063C271F
:1006700003503D2338513627395137273E2BC1D7F8
:100680000001120005012D531FE02C512A5D05E2E7
:100690002AC52FF52CC530F504D02CC52FF52AC559
:1006A00030F52F51305D0FE329C531F52FC532F5F7
:1006B0002BC533F52FC534F52EC535F5000112DFF6
:1006C00005012F2BEED72ED029C531F52AC532F5DD
:1006D0002BC533F52AC534F52EC535F5000102DFEB
:1006E00029C531F52CC532F52BC533F52CC534F5AC
:1006F0002EC535F5F7DE29C531F52AC532F529C5F0
:1007000033F52CC534F52EC535F5ECDE2BC531F5AA
:100710002AC532F52BC533F52CC534F52EC535F574
:10072000E1DE0501000112000501326B036A32515E
:100730002E25E96E2F510320EA6EEF52D8B4B7D0C0
:10074000036A32512E25E96E2F510320EA6EEF50D5
:10075000520827E3036A32512E25E96E2F510320F8
:10076000EA6E200EEF5C050DF350036A3C6F050E38
:10077000EA6E370EE96E406B3CC53FF5F2CF3DF5B2
:10078000F29E050E016EF76A3C5100013BDC0A0047
:100790000900F5CFEEFF012EFBD705013DBFF28E1C
:1007A00036D0036A32512E25E96E2F510320EA6EAE
:1007B000EF507E0827E3036A32512E25E96E2F5150
:1007C0000320EA6E530EEF5C050DF350036A3C6F95
:1007D000050EEA6E370EE96E406B3CC53FF5F2CF71
:1007E0003DF5F29E050E016EF76A3C51000192DC68
:1007F0000A000900F5CFEEFF012EFBD705013DBF32
:10080000F28E05D0376B386B396B3A6B3B6B3051DE
:10081000050DF3502C257F0806E22C6B3051070D97
:10082000F350010F2D27336B335104083DE3346B34
:100830003051070DF350345D33E2036A3351370F03
:10084000E96E050E0320EA6EEFCF3CF53CC500F0E3
:100850003451016E04E0D8900032012EFCD700A084
:100860001DD0356B3051355D19E2366B3051365D38
:1008700013E236512C253C6F34513003F3502D25B3
:1008800035253D6F3CC53FF5406F31C541F5000151
:100890008DDD0501362BEAD7352BE4D7342BC8D7AD
:1008A000332B30512C27C0D7322B2C2B3FD70001B4
:1008B000120004A07FD005012C6B2C510708D8A092
:1008C00078D093948A94080E2F6F400E306F0001F9
:1008D00097DC090E05012F6F400E306F000190DC90
:1008E00005012C51B8092E6F080E2F6F2EC530F55B
:1008F000000186DC05012C51B8092E6F090E2F6FFF
:100900002EC530F500017CDC93948A8405012D6BA3
:100910002D513F084CE3456B2DC544F5476B080E40
:10092000466F000186DC0150010F05012E6F000E9D
:1009300002202F6F2C512E25016E000E2F21036EE9
:100940000150040FE96E000E0320EA6EEFCF2EF582
:10095000080E2F6F2EC530F5000152DC400E050148
:100960002D252F6F456B446F476B080E466F0001B6
:1009700060DC0150010F05012E6F000E02202F6F69
:100980002C512E25016E000E2F21036E0150040FF5
:10099000E96E000E0320EA6EEFCF2EF5090E2F6FE1
:1009A0002EC530F500012CDC05012D2BB1D72C2BE9
:1009B00084D700011200050EEA6E2D0EE96EEF508D
:1009C0000EE0010E016E006A002EFED7012EFBD74D
:1009D0004A0E006E002EFED700D0EF2EF2D7E5EFC4
:1009E00005F005013451016A335D03E233C500F0BF
:1009F0000CD0006A080E356F333700363451005C76
:100A0000D8B0006E0136352FF7D70001120028C587
:100A1000EAFF27C5E9FF050133C5EFFFE92AD8B48E
:100A2000EA2AEF6A272BD8B4282B00011200200EE7
:100A300005012EA9300E2F6F2DC500F02DAF08D067
:100A4000001E002A00C02DF52D0E2F6F2E8F2E8137
:100A500001502DC533F5640E346F0001C2DF00C0B4
:100A60002DF5300E01240501306F2DC533F50A0E2A
:100A7000346F0001B6DF300E00240501326F300EF6
:100A80000124316F2FC500F0300E305D04E02E835D
:100A90002EBF2E8512D02FC530F5200E2F6F300EB1
:100AA000315D04E02E812EBF2E8307D0D8A42E8185
:100AB00004E130C531F5200E306F2EB505D02EB3D0
:100AC00007D02EB109D00CD02FC533F500019FDF20
:100AD00030C533F500019BDF31C533F5000197DFE9
:100AE00032C533F5000193DF47EF06F023C42AF542
:100AF00024C42BF505012551FC0F27E2040F00014A
:100B0000A4EF06F005012A513E0803E1010E2A6F09
:100B100001D02A2B1AD005012B2D03D03E0E2B6FAE
:100B200001D02B0712D005012A2D03D03E0E2A6FCB
:100B300001D02A070AD005012B513E0803E1010E1E
:100B40002B6F01D02B2B01D00501010E296F2651EF
:100B5000295D63E2D89029352D6B2C6F230E2C254F
:100B6000E96E040E2D21EA6EEF502A5D54E1D89013
:100B700029352F6B2E6F010E2E25016E000E2F21B1
:100B8000036E0150230FE96E040E0320EA6EEF504E
:100B90002B5D41E12C6B00012AEC01F00A0E0501EE
:100BA0002C6F180E2D6F040E2F6F050E2E6F020E78
:100BB000306F010E316F0001B7DD7BDE040E0501E1
:100BC0002C6FFA0E2D6F0001F6D605012C2FF9D7E8
:100BD0002C6B2C0E2D6F040E2F6F0F0E2E6F010E2F
:100BE000306F316F0001A0DD400E05012C6F2C0E1F
:100BF0002D6F040E2F6F190E2E6F010E306F316F97
:100C0000000192DD56DED3CF00F0D39E030000C07A
:100C1000D3FF97D00501292B9AD723512A5D38E1BC
:100C200024512B5D35E1262BD650D7CF03F02C6F06
:100C3000D7CF2DF5D7CF2FF52E6F316B3E0E306FFE
:100C40000001B3EC01F00501010E0024236FD65022
:100C5000D7CF03F02C6FD7CF2DF5D7CF2FF52E6F31
:100C6000316B3E0E306F0001B3EC01F00501010E57
:100C70000024246F0A0E265D2C6F040E286F190EB7
:100C8000276F2CC52DF5180E2E6F0001D0D605014B
:100C900026C529F5295351E0D89029352D6B2C6FA5
:100CA000230E2C25016E040E2D21036E010E295DED
:100CB000006ED89000360050316B306F230E302517
:100CC000E96E040E3121EA6EEFCF32F503C0EAFF80
:100CD00001C0E9FF32C5EFFFD89029352D6B2C6F8D
:100CE000010E2C25016E000E2D21036E0150230FE5
:100CF000016E040E032201C02CF503C02DF5010E78
:100D0000295D006ED890003600502F6B2E6F010EBB
:100D10002E25016E000E2F21036E0150230FE96E68
:100D2000040E0320EA6EEFCF2EF52DC5EAFF2CC589
:100D3000E9FF2EC5EFFF2907ADD72AC523F42BC540
:100D400024F40001DCEF07F0E824F76AF736630FBC
:100D5000F66E0D0EF7220A00F550FA6E0800F550F7
:100D6000F96E040B160B260B360B010E0501296FCD
:100D70002651295D2AE2D89029352B6B2A6F230E44
:100D80002A25E96E040E2B21EA6EEFCF2CF5D890C0
:100D900029352E6B2D6F010E2D25016E000E2E2193
:100DA000036E0150230FE96E040E0320EA6EEFCFAD
:100DB0002DF52CC53FF52DC540F5010E416F000105
:100DC000D6EC01F00501292BD3D723C53FF524C567
:100DD00040F5010E416F0001D6EC01F0DDEF07F0A8
:100DE000F86AD09E0A0E0501266F286B276BC1504A
:100DF000C00B0F09C16E070EB46E590E0401056FCA
:100E00006F0E066F750E076F200E086F4C0E096F80
:100E10006F0E0A6F730E0B6F650E0C6F210E0D6F48
:100E20000E6B530E0F6F630E106F6F0E116F720EFD
:100E3000126F650E136F3A0E146F156B300E196F2B
:100E40001A6BC150C00B0E09C16EC050C00B070910
:100E5000C06EC09EC2809698C69A949E93809392CC
:100E6000010EC66E000EC76ED190800ED56ECD6A93
:100E7000000ECA6E000ECB6EB16A010E0501296F1D
:100E800000015AEF01F005012C6B00012AEC01F082
:100E90000A0E0401236F200E246F090E256F200E09
:100EA000266F080E276F200E286F070E296F200E61
:100EB0002A6FD650D7CF03F00501296FD7CF2AF577
:100EC000D7CF2FF52E6F316B3E0E306F0001B3EC94
:100ED00001F000C023F50501D650D7CF03F0296FEC
:100EE000D7CF2AF5D7CF2FF52E6F316B3E0E306F4F
:100EF0000001B3EC01F000C024F5050123C53FF566
:100F000024C540F5010E416F0001D6EC01F005014A
:100F1000296B2A6B400E2B6F2C6F2D6B010E2E6FE1
:100F2000000142EC03F0460E05012C6F010E2D6FFF
:100F3000040E2F6F0F0E2E6F010E306F316F0001F8
:100F400094EC03F0460E05012C6F090E2D6F040E74
:100F50002F6F190E2E6F010E306F316F000194EC60
:100F600003F0A7DC948282A207D005012551020874
:100F700001E0256B1FD00001948482A408D00501F4
:100F80002551030802E0010E256F14D0000194885A
:100F900082A807D00501255302E0020E256F0AD072
:100FA0000001948A82AA07D00501252D01D002D024
:100FB000030E256F00019AD5D8D60501296B2A6B3F
:100FC0003F0E2B6F2C6F2D6B010E2E6F000142EC2C
:100FD00003F0460E05012C6F010E2D6F040E2F6FCE
:100FE0000F0E2E6F010E306F316F000194EC03F085
:100FF000460E05012C6F090E2D6F040E2F6F190E72
:101000002E6F010E306F316F000194EC03F051DC54
:0E10100005012C6B00012AEC01F0A4D70300AF
:020000040030CA
:0E00000000C0380E0087A1000FC00FE00F40B7
:00000001FF
;PIC18F4550
;CRC=3C84  CREATED="07-jan-16 01:24"
