:1000000040EF04F0F76A140FF66E000EF7220900B5
:10001000F5501200000000000000005F0000000327
:10002000000300143E143E14242A7F2A124333088E
:10003000666136495522500005030000001C22412C
:10004000000041221C0014083E081408083E08085D
:100050000050300000080808080800606000002018
:10006000100804023E5149453E04027F00004261EF
:1000700051494622414949361814127F10274545F7
:1000800045393E4949493201017109073649494913
:1000900036264949493E00363600000056360000F3
:1000A00008142241001414141414004122140802EC
:1000B000015109063E4159555E7E0909097E7F4975
:1000C0004949363E414141227F4141413E7F4949B4
:1000D00049417F090909013E4141493A7F08080821
:1000E0007F00417F4100304040403F7F0814224163
:1000F0007F404040407F020C027F7F0204087F3E29
:100100004141413E7F090909061E2121215E7F09E7
:1001100009097600F76A240FF66E010EF72209002E
:10012000F5501200264949493201017F01013F4043
:1001300040403F1F2040201F7F2010207F41221C75
:10014000224107087008076151494543007F41007B
:100150000002040810200000417F00040201020494
:100160004040404040000102040020545454787F35
:10017000444444383844444444384444447F385424
:1001800054541804047E0505085454543C7F080454
:10019000047800447D40002040443D007F10284406
:1001A0000000417F40007C047804787C08040478D7
:1001B00038444444387C14141408081414147C0083
:1001C0007C080404485454542004043F44443C40F4
:1001D00040207C1C2040201C3C4030403C442810E7
:1001E00028440C5050503C4464544C440008364160
:1001F0004100007F00004141360800020102040274
:1002000001012D51080803E193908A8002D0939256
:100210008A8293988A98956A2EC18CFF939A8A8ACB
:1002200000D0939A8A9A93908A9093928A9200012E
:1002300012000101146B1451070844E393948A944B
:10024000080E2D6F400E2E6F0001DADF090E01013E
:100250002D6F400E2E6F0001D3DF01011451B8093C
:10026000166F080E2D6F16C12EF10001C9DF0101B6
:100270001451B809166F090E2D6F16C12EF1000129
:10028000BFDF93948A840101156B15513F0818E371
:100290001351FF0DF3CF16F1080E2D6F16C12EF17D
:1002A0000001AEDF01011351FF0DF3CF16F1090E6E
:1002B0002D6F16C12EF10001A3DF0101152BE5D72B
:1002C000142BB9D70001120094908B80939A8A9ACC
:1002D00093908A9093928A9293948A94080E010143
:1002E0002D6FC00E2E6F00018BDF090E01012D6FE7
:1002F000C00E2E6F000184DF080E01012D6F400E2D
:100300002E6F00017DDF090E01012D6F400E2E6F53
:10031000000176DF080E01012D6FB80E2E6F00016F
:100320006FDF090E01012D6FB80E2E6F000168DF1F
:100330000101122D0FD0080E2D6F3F0E2E6F000100
:100340005FDF090E01012D6F3F0E2E6F000158DF98
:100350000ED00101080E2D6F3E0E2E6F000150DFF2
:10036000090E01012D6F3E0E2E6F000149DF0101C4
:10037000136B00015EDF7EEF04F001012C510808D1
:1003800003E193908A8002D093928A829568939831
:100390008A88939A8A8A00D0939A8A9A00D0939AEC
:1003A0008A8A00D0956883CF2DF1939A8A9A939088
:1003B0008A9093928A922DC101F0000109EF02F018
:1003C000080E01012B6F27513F0804E2400E275F02
:1003D000090E2B6F93948A94279F278D2BC12DF1A3
:1003E00027C12EF100010CDF01012831006E00321F
:1003F00000321F0E00160050BF0BB8092C6F2BC126
:100400002DF12E6F0001FCDE93948A842BC12CF118
:10041000B4D701C02AF10101292D0FD02851070BB3
:100420002C6F010E006E2C51016E04E0D890003646
:10043000012EFCD700502A130FD02851070B2C6F28
:10044000010E006E2C51016E04E0D8900036012E92
:10045000FCD70050FF0A2A1793948A942BC12DF1E0
:1004600027C12EF10001CCDE93948A842BC12DF19B
:100470002AC12EF1C5DE120001011B6B036A1B515C
:100480001725E96E18510320EA6EEF52D8B4B7D0A1
:10049000036A1B511725E96E18510320EA6EEF50CD
:1004A000520827E3036A1B511725E96E18510320F0
:1004B000EA6E200EEF5C050DF350036A256F010E06
:1004C000EA6E200EE96E296B25C128F1F2CF26F1E4
:1004D000F29E050E016EF76A2551000193DD0A00B8
:1004E0000900F5CFEEFF012EFBD7010126BFF28EEA
:1004F00036D0036A1B511725E96E18510320EA6EA6
:10050000EF507E0827E3036A1B511725E96E185147
:100510000320EA6E530EEF5C050DF350036A256F5E
:10052000010EEA6E200EE96E296B25C128F1F2CF8B
:1005300026F1F29E050E016EF76A25510001EADDF3
:100540000A000900F5CFEEFF012EFBD7010126BFFF
:10055000F28E05D0206B216B226B236B246B19511B
:10056000050DF35015257F0806E2156B1951070D8F
:10057000F350010F16271C6B1C5104083DE31D6B43
:100580001951070DF3501D5D33E2036A1C51200F12
:10059000E96E010E0320EA6EEFCF25F125C100F0D0
:1005A0001D51016E04E0D8900032012EFCD700A04E
:1005B0001DD01E6B19511E5D19E21F6B19511F5D75
:1005C00013E21F511525256F1D511903F3501625F0
:1005D0001E25266F25C127F1286F1AC129F10001B8
:1005E000EFDE01011F2BEAD71E2BE4D71D2BC8D746
:1005F0001C2B19511527C0D71B2B152B3FD70001DA
:1006000074EF03F0010EEA6E160EE96EEF500EE085
:10061000010E016E006A002EFED7012EFBD74A0E96
:10062000006E002EFED700D0EF2EF2D712000EC0C3
:1006300013F10FC014F101011051FC0F25E2040F5A
:1006400000012FEF04F0010113517F0802E1136B49
:1006500001D0132B19D00101145303E13F0E146F85
:1006600001D0140711D00101135303E17F0E136F62
:1006700001D0130709D0010114513F0802E1146BA6
:1006800001D0142B01D00101010E126F1151125D26
:1006900038E2D8901235166B156F0E0E1525E96EDF
:1006A000000E1621EA6EEF50135D29E1D890123545
:1006B000186B176F010E1725016E000E1821036EBF
:1006C00001500E0FE96E000E0320EA6EEF50145D2C
:1006D00016E1156B166B186B040E176F020E196F6F
:1006E000010E1A6F0001C8D6040E0101156FFA0E33
:1006F000166F000187DF0101152FF9D7ADD0122B3E
:10070000C5D70E51135D18E10F51145D15E1112B82
:10071000D650156F15517F0B0E6FD650156F1551B2
:100720003F0B0F6F0EC127F10FC128F1010E296F8A
:10073000000146DE2ED00101010E115D006ED89041
:1007400000360050166B156F0E0E1525E96E000E63
:100750001621EA6EEFCF17F1010E115D006ED890F1
:1007600000360050196B186F010E1825016E000E2F
:100770001921036E01500E0FE96E000E0320EA6E80
:10078000EFCF18F117C127F118C128F1296B00012B
:1007900017DE13C127F114C128F1010E0101296FE1
:1007A00000010EDE11C112F10101125351E0D89087
:1007B0001235166B156F0E0E1525016E000E1621E3
:1007C000036E010E125D006ED890003600501A6B59
:1007D000196F0E0E1925E96E000E1A21EA6EEFCF81
:1007E0001BF103C0EAFF01C0E9FF1BC1EFFFD89076
:1007F0001235166B156F010E1525016E000E1621B0
:10080000036E01500E0F016E000E032201C015F1A0
:1008100003C016F1010E125D006ED8900036005034
:10082000186B176F010E1725016E000E1821036E4D
:1008300001500E0FE96E000E0320EA6EEFCF17F1A4
:1008400016C1EAFF15C1E9FF17C1EFFF1207ADD7C7
:1008500013C10EF014C10FF00001C3EF04F0E8243F
:10086000F76AF736790FF66E080EF7220A00F55090
:10087000FA6E0800F550F96E4606560666067606CC
:10088000F86AD09E0A0E0101116FC150C00B0F090A
:10089000C16E070EB46E590E046E6F0E056E750EA6
:1008A000066E200E076E4C0E086E6F0E096E730EEC
:1008B0000A6E650E0B6E210E0C6E0D6AC150C00BD8
:1008C0000E09C16EC050C00B0709C06EC09EC28029
:1008D0009698C69A949E93809392010EC66E000ECF
:1008E000C76ED190800ED56ECD6A000ECA6E000E16
:1008F000CB6EB16A010E126F0001E6D40101136BD9
:10090000000197DC0A0E0E6E200E0F6ED65001010C
:10091000126F12517F0B0E6FD650126F12513F0B98
:100920000F6F0EC127F10FC128F1010E296F0001D1
:1009300047DD948282A207D001011051020801E034
:10094000106B1FD00001948482A408D001011051C3
:10095000030802E0010E106F14D00001948882A8F1
:1009600007D00101105302E0020E106F0AD00001FF
:10097000948A82AA07D00101102D01D002D0030E63
:10098000106F000154D6640E0101166F00013ADEAB
:04099000D0D70300B9
:020000040030CA
:0E00000000C0380E0087A1000FC00FE00F40B7
:00000001FF
;PIC18F4550
;CRC=2682  CREATED="30-dez-15 01:46"
